{
  "contractName": "GovernanceContract",
  "abi": [
    {
      "inputs": [],
      "stateMutability": "nonpayable",
      "type": "constructor"
    },
    {
      "inputs": [],
      "name": "lottery",
      "outputs": [
        {
          "internalType": "address",
          "name": "",
          "type": "address"
        }
      ],
      "stateMutability": "view",
      "type": "function",
      "constant": true
    },
    {
      "inputs": [],
      "name": "numberOfTimesLoaded",
      "outputs": [
        {
          "internalType": "uint8",
          "name": "",
          "type": "uint8"
        }
      ],
      "stateMutability": "view",
      "type": "function",
      "constant": true
    },
    {
      "inputs": [],
      "name": "randomness",
      "outputs": [
        {
          "internalType": "address",
          "name": "",
          "type": "address"
        }
      ],
      "stateMutability": "view",
      "type": "function",
      "constant": true
    },
    {
      "inputs": [
        {
          "internalType": "address",
          "name": "_lottery",
          "type": "address"
        },
        {
          "internalType": "address",
          "name": "_randomness",
          "type": "address"
        }
      ],
      "name": "init",
      "outputs": [],
      "stateMutability": "nonpayable",
      "type": "function"
    }
  ],
  "bytecode": "0x608060405234801561001057600080fd5b5060016000806101000a81548160ff021916908360ff1602179055506104528061003b6000396000f3fe608060405234801561001057600080fd5b506004361061004c5760003560e01c80633601318914610051578063ba13a57214610085578063ef2babee146100b9578063f09a4016146100da575b600080fd5b61005961013e565b604051808273ffffffffffffffffffffffffffffffffffffffff16815260200191505060405180910390f35b61008d610164565b604051808273ffffffffffffffffffffffffffffffffffffffff16815260200191505060405180910390f35b6100c161018a565b604051808260ff16815260200191505060405180910390f35b61013c600480360360408110156100f057600080fd5b81019080803573ffffffffffffffffffffffffffffffffffffffff169060200190929190803573ffffffffffffffffffffffffffffffffffffffff16906020019092919050505061019b565b005b600160009054906101000a900473ffffffffffffffffffffffffffffffffffffffff1681565b600060019054906101000a900473ffffffffffffffffffffffffffffffffffffffff1681565b60008054906101000a900460ff1681565b600073ffffffffffffffffffffffffffffffffffffffff168173ffffffffffffffffffffffffffffffffffffffff161415610221576040517f08c379a00000000000000000000000000000000000000000000000000000000081526004018080602001828103825260218152602001806103fc6021913960400191505060405180910390fd5b600073ffffffffffffffffffffffffffffffffffffffff168273ffffffffffffffffffffffffffffffffffffffff1614156102c4576040517f08c379a00000000000000000000000000000000000000000000000000000000081526004018080602001828103825260188152602001807f6e6f2d6c6f74746572792d616464726573732d676976656e000000000000000081525060200191505060405180910390fd5b60008060009054906101000a900460ff1660ff161161034b576040517f08c379a00000000000000000000000000000000000000000000000000000000081526004018080602001828103825260178152602001807f63616e2d6f6e6c792d62652d63616c6c65642d6f6e636500000000000000000081525060200191505060405180910390fd5b600160008054906101000a900460ff16036000806101000a81548160ff021916908360ff16021790555080600160006101000a81548173ffffffffffffffffffffffffffffffffffffffff021916908373ffffffffffffffffffffffffffffffffffffffff16021790555081600060016101000a81548173ffffffffffffffffffffffffffffffffffffffff021916908373ffffffffffffffffffffffffffffffffffffffff160217905550505056fe676f7665726e616e63652f6e6f2d72616e646f6d6e657373732d61646472657373a2646970667358221220cd6e63313e9a4fa8444a69a14f46b8414b6b2cae1eef17581d4526690aa4055b64736f6c634300060c0033",
  "immutableReferences": {},
  "source": "// SPDX-License-Identifier: UNLICENSED\r\npragma solidity >=0.4.22 <0.8.0;\r\n\r\ncontract GovernanceContract {\r\n    uint8 public numberOfTimesLoaded;\r\n    address public lottery;\r\n    address public randomness;\r\n    \r\n    constructor() public {\r\n        numberOfTimesLoaded = 1;\r\n    }\r\n    function init(address _lottery, address _randomness) public {\r\n        require(_randomness != address(0), \"governance/no-randomnesss-address\");\r\n        require(_lottery != address(0), \"no-lottery-address-given\");\r\n        require(numberOfTimesLoaded > 0, \"can-only-be-called-once\");\r\n        numberOfTimesLoaded = numberOfTimesLoaded - 1;\r\n        randomness = _randomness;\r\n        lottery = _lottery;\r\n    }\r\n}",
  "sourcePath": "C:/Workspace/dev/lottery-dApp/src/contracts/GovernanceContract.sol",
  "compiler": {
    "name": "solc",
    "version": "0.6.12+commit.27d51765.Emscripten.clang"
  },
  "schemaVersion": "3.3.3",
  "updatedAt": "2021-04-18T05:47:45.957Z",
  "networkType": "ethereum",
  "devdoc": {
    "kind": "dev",
    "methods": {},
    "version": 1
  },
  "userdoc": {
    "kind": "user",
    "methods": {},
    "version": 1
  }
}