{
  "contractName": "LotteryContract",
  "abi": [
    {
      "inputs": [
        {
          "internalType": "address",
          "name": "_governance",
          "type": "address"
        }
      ],
      "stateMutability": "nonpayable",
      "type": "constructor"
    },
    {
      "inputs": [
        {
          "internalType": "uint256",
          "name": "",
          "type": "uint256"
        }
      ],
      "name": "bets",
      "outputs": [
        {
          "internalType": "uint256",
          "name": "id",
          "type": "uint256"
        },
        {
          "internalType": "address payable",
          "name": "player",
          "type": "address"
        },
        {
          "internalType": "uint256",
          "name": "bettingAmount",
          "type": "uint256"
        },
        {
          "internalType": "uint256",
          "name": "gameId",
          "type": "uint256"
        },
        {
          "components": [
            {
              "internalType": "uint8",
              "name": "n1",
              "type": "uint8"
            },
            {
              "internalType": "uint8",
              "name": "n2",
              "type": "uint8"
            },
            {
              "internalType": "uint8",
              "name": "n3",
              "type": "uint8"
            },
            {
              "internalType": "uint8",
              "name": "n4",
              "type": "uint8"
            }
          ],
          "internalType": "struct LotteryContract.BettingNumbers",
          "name": "bettingNumbers",
          "type": "tuple"
        }
      ],
      "stateMutability": "view",
      "type": "function",
      "constant": true
    },
    {
      "inputs": [],
      "name": "bettingPrice",
      "outputs": [
        {
          "internalType": "uint256",
          "name": "",
          "type": "uint256"
        }
      ],
      "stateMutability": "view",
      "type": "function",
      "constant": true
    },
    {
      "inputs": [],
      "name": "currentGameId",
      "outputs": [
        {
          "internalType": "uint256",
          "name": "",
          "type": "uint256"
        }
      ],
      "stateMutability": "view",
      "type": "function",
      "constant": true
    },
    {
      "inputs": [],
      "name": "gameState",
      "outputs": [
        {
          "internalType": "enum LotteryContract.GameStateEnum",
          "name": "",
          "type": "uint8"
        }
      ],
      "stateMutability": "view",
      "type": "function",
      "constant": true
    },
    {
      "inputs": [
        {
          "internalType": "uint256",
          "name": "",
          "type": "uint256"
        }
      ],
      "name": "games",
      "outputs": [
        {
          "internalType": "uint256",
          "name": "id",
          "type": "uint256"
        },
        {
          "internalType": "uint256",
          "name": "randomNumber",
          "type": "uint256"
        },
        {
          "internalType": "uint256",
          "name": "totalBetAmount",
          "type": "uint256"
        },
        {
          "components": [
            {
              "internalType": "uint8",
              "name": "n1",
              "type": "uint8"
            },
            {
              "internalType": "uint8",
              "name": "n2",
              "type": "uint8"
            },
            {
              "internalType": "uint8",
              "name": "n3",
              "type": "uint8"
            },
            {
              "internalType": "uint8",
              "name": "n4",
              "type": "uint8"
            }
          ],
          "internalType": "struct LotteryContract.BettingNumbers",
          "name": "drawnNumbers",
          "type": "tuple"
        }
      ],
      "stateMutability": "view",
      "type": "function",
      "constant": true
    },
    {
      "inputs": [],
      "name": "governance",
      "outputs": [
        {
          "internalType": "contract IGovernanceContract",
          "name": "",
          "type": "address"
        }
      ],
      "stateMutability": "view",
      "type": "function",
      "constant": true
    },
    {
      "inputs": [],
      "name": "getBalance",
      "outputs": [
        {
          "internalType": "uint256",
          "name": "",
          "type": "uint256"
        }
      ],
      "stateMutability": "view",
      "type": "function",
      "constant": true
    },
    {
      "inputs": [
        {
          "internalType": "address payable",
          "name": "_to",
          "type": "address"
        }
      ],
      "name": "withdrawBalance",
      "outputs": [],
      "stateMutability": "payable",
      "type": "function",
      "payable": true
    },
    {
      "inputs": [],
      "name": "startGame",
      "outputs": [],
      "stateMutability": "nonpayable",
      "type": "function"
    },
    {
      "inputs": [
        {
          "internalType": "uint8",
          "name": "n1",
          "type": "uint8"
        },
        {
          "internalType": "uint8",
          "name": "n2",
          "type": "uint8"
        },
        {
          "internalType": "uint8",
          "name": "n3",
          "type": "uint8"
        },
        {
          "internalType": "uint8",
          "name": "n4",
          "type": "uint8"
        }
      ],
      "name": "placeBet",
      "outputs": [],
      "stateMutability": "payable",
      "type": "function",
      "payable": true
    },
    {
      "inputs": [
        {
          "internalType": "uint256",
          "name": "seed",
          "type": "uint256"
        }
      ],
      "name": "drawNumbers",
      "outputs": [
        {
          "internalType": "bytes32",
          "name": "requestId",
          "type": "bytes32"
        }
      ],
      "stateMutability": "nonpayable",
      "type": "function"
    },
    {
      "inputs": [
        {
          "internalType": "uint256",
          "name": "_randomness",
          "type": "uint256"
        }
      ],
      "name": "fulfillRandomNumber",
      "outputs": [],
      "stateMutability": "nonpayable",
      "type": "function"
    }
  ],
  "bytecode": "0x60806040526001600060146101000a81548160ff021916908360048111156200002457fe5b0217905550612710600155600160035560006004553480156200004657600080fd5b50604051620027803803806200278083398181016040528101906200006c91906200010b565b33600260006101000a81548173ffffffffffffffffffffffffffffffffffffffff021916908373ffffffffffffffffffffffffffffffffffffffff160217905550806000806101000a81548173ffffffffffffffffffffffffffffffffffffffff021916908373ffffffffffffffffffffffffffffffffffffffff1602179055505062000185565b60008151905062000105816200016b565b92915050565b6000602082840312156200011e57600080fd5b60006200012e84828501620000f4565b91505092915050565b600062000144826200014b565b9050919050565b600073ffffffffffffffffffffffffffffffffffffffff82169050919050565b620001768162000137565b81146200018257600080fd5b50565b6125eb80620001956000396000f3fe6080604052600436106100a75760003560e01c8063756af45f11610064578063756af45f146101ca57806384593b77146101e6578063b6e9923514610211578063d1f9c24d1461024e578063d65ab5f214610279578063f78da08a14610290576100a7565b8063117a5b90146100ac57806312065fe0146100ec5780631354bdef1461011757806322af00fa14610133578063536a3ddc146101745780635aa6e6751461019f575b600080fd5b3480156100b857600080fd5b506100d360048036038101906100ce9190611ae0565b6102b9565b6040516100e39493929190612431565b60405180910390f35b3480156100f857600080fd5b50610101610367565b60405161010e91906123c2565b60405180910390f35b610131600480360381019061012c9190611b09565b6103ff565b005b34801561013f57600080fd5b5061015a60048036038101906101559190611ae0565b61080f565b60405161016b9594939291906123dd565b60405180910390f35b34801561018057600080fd5b506101896108f0565b60405161019691906123c2565b60405180910390f35b3480156101ab57600080fd5b506101b46108f6565b6040516101c1919061218c565b60405180910390f35b6101e460048036038101906101df9190611a8e565b61091a565b005b3480156101f257600080fd5b506101fb610b04565b60405161020891906123c2565b60405180910390f35b34801561021d57600080fd5b5061023860048036038101906102339190611ae0565b610b0a565b6040516102459190612171565b60405180910390f35b34801561025a57600080fd5b50610263610c94565b60405161027091906121a7565b60405180910390f35b34801561028557600080fd5b5061028e610ca7565b005b34801561029c57600080fd5b506102b760048036038101906102b29190611ae0565b610f38565b005b6006602052806000526040600020600091509050806000015490806001015490806002015490806003016040518060800160405290816000820160009054906101000a900460ff1660ff1660ff1681526020016000820160019054906101000a900460ff1660ff1660ff1681526020016000820160029054906101000a900460ff1660ff1660ff1681526020016000820160039054906101000a900460ff1660ff1660ff1681525050905084565b6000600260009054906101000a900473ffffffffffffffffffffffffffffffffffffffff1673ffffffffffffffffffffffffffffffffffffffff163373ffffffffffffffffffffffffffffffffffffffff16146103f9576040517f08c379a00000000000000000000000000000000000000000000000000000000081526004016103f090612362565b60405180910390fd5b47905090565b6000600481111561040c57fe5b600060149054906101000a900460ff16600481111561042757fe5b14610467576040517f08c379a000000000000000000000000000000000000000000000000000000000815260040161045e906122e2565b60405180910390fd5b60035460066000600354815260200190815260200160002060000154146104c3576040517f08c379a00000000000000000000000000000000000000000000000000000000081526004016104ba90612322565b60405180910390fd5b6001543414610507576040517f08c379a00000000000000000000000000000000000000000000000000000000081526004016104fe906123a2565b60405180910390fd5b8383838360098460ff161115610552576040517f08c379a000000000000000000000000000000000000000000000000000000000815260040161054990612202565b60405180910390fd5b60098360ff161115610599576040517f08c379a000000000000000000000000000000000000000000000000000000000815260040161059090612262565b60405180910390fd5b60098260ff1611156105e0576040517f08c379a00000000000000000000000000000000000000000000000000000000081526004016105d790612222565b60405180910390fd5b60098160ff161115610627576040517f08c379a000000000000000000000000000000000000000000000000000000000815260040161061e906122a2565b60405180910390fd5b60046000815480929190600101919050555034600660006003548152602001908152602001600020600201600082825401925050819055506106676117e7565b60405180608001604052808a60ff1681526020018960ff1681526020018860ff1681526020018760ff16815250905061069e61181b565b6040518060a0016040528060045481526020013373ffffffffffffffffffffffffffffffffffffffff168152602001348152602001600354815260200183815250905060078190806001815401808255809150506001900390600052602060002090600502016000909190919091506000820151816000015560208201518160010160006101000a81548173ffffffffffffffffffffffffffffffffffffffff021916908373ffffffffffffffffffffffffffffffffffffffff160217905550604082015181600201556060820151816003015560808201518160040160008201518160000160006101000a81548160ff021916908360ff16021790555060208201518160000160016101000a81548160ff021916908360ff16021790555060408201518160000160026101000a81548160ff021916908360ff16021790555060608201518160000160036101000a81548160ff021916908360ff1602179055505050505050505050505050505050565b6007818154811061081c57fe5b90600052602060002090600502016000915090508060000154908060010160009054906101000a900473ffffffffffffffffffffffffffffffffffffffff1690806002015490806003015490806004016040518060800160405290816000820160009054906101000a900460ff1660ff1660ff1681526020016000820160019054906101000a900460ff1660ff1660ff1681526020016000820160029054906101000a900460ff1660ff1660ff1681526020016000820160039054906101000a900460ff1660ff1660ff1681525050905085565b60035481565b60008054906101000a900473ffffffffffffffffffffffffffffffffffffffff1681565b600260009054906101000a900473ffffffffffffffffffffffffffffffffffffffff1673ffffffffffffffffffffffffffffffffffffffff163373ffffffffffffffffffffffffffffffffffffffff16146109aa576040517f08c379a00000000000000000000000000000000000000000000000000000000081526004016109a190612362565b60405180910390fd5b600160048111156109b757fe5b600060149054906101000a900460ff1660048111156109d257fe5b14610a12576040517f08c379a0000000000000000000000000000000000000000000000000000000008152600401610a0990612382565b60405180910390fd5b600073ffffffffffffffffffffffffffffffffffffffff168173ffffffffffffffffffffffffffffffffffffffff16141580610a7b5750600073ffffffffffffffffffffffffffffffffffffffff168173ffffffffffffffffffffffffffffffffffffffff1614155b610aba576040517f08c379a0000000000000000000000000000000000000000000000000000000008152600401610ab1906121e2565b60405180910390fd5b8073ffffffffffffffffffffffffffffffffffffffff166108fc479081150290604051600060405180830381858888f19350505050158015610b00573d6000803e3d6000fd5b5050565b60015481565b6000600260009054906101000a900473ffffffffffffffffffffffffffffffffffffffff1673ffffffffffffffffffffffffffffffffffffffff163373ffffffffffffffffffffffffffffffffffffffff1614610b9c576040517f08c379a0000000000000000000000000000000000000000000000000000000008152600401610b9390612362565b60405180910390fd5b60006004811115610ba957fe5b600060149054906101000a900460ff166004811115610bc457fe5b14610c04576040517f08c379a0000000000000000000000000000000000000000000000000000000008152600401610bfb906122e2565b60405180910390fd5b6003546006600060035481526020019081526020016000206000015414610c60576040517f08c379a0000000000000000000000000000000000000000000000000000000008152600401610c5790612322565b60405180910390fd5b6002600060146101000a81548160ff02191690836004811115610c7f57fe5b0217905550610c8d82610fc8565b9050919050565b600060149054906101000a900460ff1681565b600260009054906101000a900473ffffffffffffffffffffffffffffffffffffffff1673ffffffffffffffffffffffffffffffffffffffff163373ffffffffffffffffffffffffffffffffffffffff1614610d37576040517f08c379a0000000000000000000000000000000000000000000000000000000008152600401610d2e90612362565b60405180910390fd5b60016004811115610d4457fe5b600060149054906101000a900460ff166004811115610d5f57fe5b14610d9f576040517f08c379a0000000000000000000000000000000000000000000000000000000008152600401610d9690612302565b60405180910390fd5b600060078054905014610de7576040517f08c379a0000000000000000000000000000000000000000000000000000000008152600401610dde90612282565b60405180910390fd5b60008060146101000a81548160ff02191690836004811115610e0557fe5b02179055506003600081548092919060010191905055506040518060800160405280600354815260200160008152602001600081526020016040518060800160405280600060ff168152602001600060ff168152602001600060ff168152602001600060ff1681525081525060066000600354815260200190815260200160002060008201518160000155602082015181600101556040820151816002015560608201518160030160008201518160000160006101000a81548160ff021916908360ff16021790555060208201518160000160016101000a81548160ff021916908360ff16021790555060408201518160000160026101000a81548160ff021916908360ff16021790555060608201518160000160036101000a81548160ff021916908360ff1602179055505050905050565b60026004811115610f4557fe5b600060149054906101000a900460ff166004811115610f6057fe5b14610fa0576040517f08c379a0000000000000000000000000000000000000000000000000000000008152600401610f9790612242565b60405180910390fd5b8060066000600354815260200190815260200160002060010181905550610fc5611161565b50565b600060026004811115610fd757fe5b600060149054906101000a900460ff166004811115610ff257fe5b14611032576040517f08c379a0000000000000000000000000000000000000000000000000000000008152600401611029906121c2565b60405180910390fd5b60008054906101000a900473ffffffffffffffffffffffffffffffffffffffff1673ffffffffffffffffffffffffffffffffffffffff1663360131896040518163ffffffff1660e01b815260040160206040518083038186803b15801561109857600080fd5b505afa1580156110ac573d6000803e3d6000fd5b505050506040513d601f19601f820116820180604052508101906110d09190611a65565b73ffffffffffffffffffffffffffffffffffffffff1663f970dd02836040518263ffffffff1660e01b815260040161110891906123c2565b602060405180830381600087803b15801561112257600080fd5b505af1158015611136573d6000803e3d6000fd5b505050506040513d601f19601f8201168201806040525081019061115a9190611ab7565b9050919050565b6002600481111561116e57fe5b600060149054906101000a900460ff16600481111561118957fe5b146111c9576040517f08c379a00000000000000000000000000000000000000000000000000000000081526004016111c0906122c2565b60405180910390fd5b600060066000600354815260200190815260200160002060010154905060006103e861271083816111f657fe5b06816111fe57fe5b049050600060646103e8848161121057fe5b068161121857fe5b0490506000600a6064858161122957fe5b068161123157fe5b0490506000600a858161124057fe5b06905060405180608001604052808560ff1681526020018460ff1681526020018360ff1681526020018260ff1681525060066000600354815260200190815260200160002060030160008201518160000160006101000a81548160ff021916908360ff16021790555060208201518160000160016101000a81548160ff021916908360ff16021790555060408201518160000160026101000a81548160ff021916908360ff16021790555060608201518160000160036101000a81548160ff021916908360ff1602179055509050506003600060146101000a81548160ff0219169083600481111561132e57fe5b021790555061133b611342565b5050505050565b6003600481111561134f57fe5b600060149054906101000a900460ff16600481111561136a57fe5b146113aa576040517f08c379a00000000000000000000000000000000000000000000000000000000081526004016113a190612342565b60405180910390fd5b6113b26113e8565b6113ba611649565b6004600060146101000a81548160ff021916908360048111156113d957fe5b02179055506113e6611755565b565b60005b60078054905081101561164657600060066000600354815260200190815260200160002060030160000160009054906101000a900460ff1660ff166007838154811061143357fe5b906000526020600020906005020160040160000160009054906101000a900460ff1660ff161480156114c0575060066000600354815260200190815260200160002060030160000160019054906101000a900460ff1660ff166007838154811061149957fe5b906000526020600020906005020160040160000160019054906101000a900460ff1660ff16145b8015611527575060066000600354815260200190815260200160002060030160000160029054906101000a900460ff1660ff166007838154811061150057fe5b906000526020600020906005020160040160000160029054906101000a900460ff1660ff16145b801561158e575060066000600354815260200190815260200160002060030160000160039054906101000a900460ff1660ff166007838154811061156757fe5b906000526020600020906005020160040160000160039054906101000a900460ff1660ff16145b90508015611638576005600783815481106115a557fe5b906000526020600020906005020160010160009054906101000a900473ffffffffffffffffffffffffffffffffffffffff169080600181540180825580915050600190039060005260206000200160009091909190916101000a81548173ffffffffffffffffffffffffffffffffffffffff021916908373ffffffffffffffffffffffffffffffffffffffff1602179055505b5080806001019150506113eb565b50565b600060058054905011156117535760006064600a60066000600354815260200190815260200160002060020154028161167e57fe5b04905060008160066000600354815260200190815260200160002060020154039050600060058054905082816116b057fe5b04905060005b60058054905081101561174e57600581815481106116d057fe5b9060005260206000200160009054906101000a900473ffffffffffffffffffffffffffffffffffffffff1673ffffffffffffffffffffffffffffffffffffffff166108fc839081150290604051600060405180830381858888f19350505050158015611740573d6000803e3d6000fd5b5080806001019150506116b6565b505050505b565b600760006117639190611866565b600067ffffffffffffffff8111801561177b57600080fd5b506040519080825280602002602001820160405280156117aa5781602001602082028036833780820191505090505b50600590805190602001906117c092919061188a565b506001600060146101000a81548160ff021916908360048111156117e057fe5b0217905550565b6040518060800160405280600060ff168152602001600060ff168152602001600060ff168152602001600060ff1681525090565b6040518060a0016040528060008152602001600073ffffffffffffffffffffffffffffffffffffffff16815260200160008152602001600081526020016118606117e7565b81525090565b50805460008255600502906000526020600020908101906118879190611914565b50565b828054828255906000526020600020908101928215611903579160200282015b828111156119025782518260006101000a81548173ffffffffffffffffffffffffffffffffffffffff021916908373ffffffffffffffffffffffffffffffffffffffff160217905550916020019190600101906118aa565b5b50905061191091906119c1565b5090565b5b808211156119bd576000808201600090556001820160006101000a81549073ffffffffffffffffffffffffffffffffffffffff02191690556002820160009055600382016000905560048201600080820160006101000a81549060ff02191690556000820160016101000a81549060ff02191690556000820160026101000a81549060ff02191690556000820160036101000a81549060ff0219169055505050600501611915565b5090565b5b808211156119f857600081816101000a81549073ffffffffffffffffffffffffffffffffffffffff0219169055506001016119c2565b5090565b600081519050611a0b81612542565b92915050565b600081359050611a2081612559565b92915050565b600081519050611a3581612570565b92915050565b600081359050611a4a81612587565b92915050565b600081359050611a5f8161259e565b92915050565b600060208284031215611a7757600080fd5b6000611a85848285016119fc565b91505092915050565b600060208284031215611aa057600080fd5b6000611aae84828501611a11565b91505092915050565b600060208284031215611ac957600080fd5b6000611ad784828501611a26565b91505092915050565b600060208284031215611af257600080fd5b6000611b0084828501611a3b565b91505092915050565b60008060008060808587031215611b1f57600080fd5b6000611b2d87828801611a50565b9450506020611b3e87828801611a50565b9350506040611b4f87828801611a50565b9250506060611b6087828801611a50565b91505092959194509250565b611b7581612499565b82525050565b611b84816124ab565b82525050565b611b93816124ff565b82525050565b611ba281612523565b82525050565b6000611bb5602983612476565b91507f496e76616c69642067616d6520737461746520746f2066657463682072616e6460008301527f6f6d206e756d62657200000000000000000000000000000000000000000000006020830152604082019050919050565b6000611c1b602283612476565b91507f5468652064657374696e6174696f6e206164647265737320697320696e76616c60008301527f69640000000000000000000000000000000000000000000000000000000000006020830152604082019050919050565b6000611c81602083612476565b91507f4669727374206469676974206d757374206265206c657373207468616e2031306000830152602082019050919050565b6000611cc1602083612476565b91507f5468697264206469676974206d757374206265206c657373207468616e2031306000830152602082019050919050565b6000611d01602b83612476565b91507f496e76616c69642067616d6520737461746520746f2070726f6365737320726160008301527f6e646f6d206e756d6265720000000000000000000000000000000000000000006020830152604082019050919050565b6000611d67602183612476565b91507f5365636f6e64206469676974206d757374206265206c657373207468616e203160008301527f30000000000000000000000000000000000000000000000000000000000000006020830152604082019050919050565b6000611dcd601a83612476565b91507f546865726520617265206f75747374616e64696e6720626574730000000000006000830152602082019050919050565b6000611e0d602183612476565b91507f466f75727468206469676974206d757374206265206c657373207468616e203160008301527f30000000000000000000000000000000000000000000000000000000000000006020830152604082019050919050565b6000611e73602b83612476565b91507f496e76616c69642067616d6520737461746520746f2070726f6365737320647260008301527f61776e206e756d626572730000000000000000000000000000000000000000006020830152604082019050919050565b6000611ed9602883612476565b91507f546865726520617265206e6f206163746976652067616d65732061636365707460008301527f696e6720626574730000000000000000000000000000000000000000000000006020830152604082019050919050565b6000611f3f601f83612476565b91507f546865726520697320616e206163746976652067616d6520616c7265616479006000830152602082019050919050565b6000611f7f601083612476565b91507f63616e6e6f742066696e642067616d65000000000000000000000000000000006000830152602082019050919050565b6000611fbf602383612476565b91507f496e76616c69642067616d6520737461746520746f207061796f75742070726960008301527f7a657300000000000000000000000000000000000000000000000000000000006020830152604082019050919050565b6000612025602683612476565b91507f4f6e6c792061646d696e206861732061636365737320746f207468697320726560008301527f736f7572636500000000000000000000000000000000000000000000000000006020830152604082019050919050565b600061208b601f83612476565b91507f546865726520697320616e206163746976652067616d652072756e6e696e67006000830152602082019050919050565b60006120cb601583612476565b91507f496e76616c69642062657474696e6720707269636500000000000000000000006000830152602082019050919050565b6080820160008201516121146000850182612162565b5060208201516121276020850182612162565b50604082015161213a6040850182612162565b50606082015161214d6060850182612162565b50505050565b61215c816124e8565b82525050565b61216b816124f2565b82525050565b60006020820190506121866000830184611b7b565b92915050565b60006020820190506121a16000830184611b8a565b92915050565b60006020820190506121bc6000830184611b99565b92915050565b600060208201905081810360008301526121db81611ba8565b9050919050565b600060208201905081810360008301526121fb81611c0e565b9050919050565b6000602082019050818103600083015261221b81611c74565b9050919050565b6000602082019050818103600083015261223b81611cb4565b9050919050565b6000602082019050818103600083015261225b81611cf4565b9050919050565b6000602082019050818103600083015261227b81611d5a565b9050919050565b6000602082019050818103600083015261229b81611dc0565b9050919050565b600060208201905081810360008301526122bb81611e00565b9050919050565b600060208201905081810360008301526122db81611e66565b9050919050565b600060208201905081810360008301526122fb81611ecc565b9050919050565b6000602082019050818103600083015261231b81611f32565b9050919050565b6000602082019050818103600083015261233b81611f72565b9050919050565b6000602082019050818103600083015261235b81611fb2565b9050919050565b6000602082019050818103600083015261237b81612018565b9050919050565b6000602082019050818103600083015261239b8161207e565b9050919050565b600060208201905081810360008301526123bb816120be565b9050919050565b60006020820190506123d76000830184612153565b92915050565b6000610100820190506123f36000830188612153565b6124006020830187611b6c565b61240d6040830186612153565b61241a6060830185612153565b61242760808301846120fe565b9695505050505050565b600060e0820190506124466000830187612153565b6124536020830186612153565b6124606040830185612153565b61246d60608301846120fe565b95945050505050565b600082825260208201905092915050565b6000612492826124c8565b9050919050565b60006124a4826124c8565b9050919050565b6000819050919050565b60008190506124c382612535565b919050565b600073ffffffffffffffffffffffffffffffffffffffff82169050919050565b6000819050919050565b600060ff82169050919050565b600061250a82612511565b9050919050565b600061251c826124c8565b9050919050565b600061252e826124b5565b9050919050565b6005811061253f57fe5b50565b61254b81612487565b811461255657600080fd5b50565b61256281612499565b811461256d57600080fd5b50565b612579816124ab565b811461258457600080fd5b50565b612590816124e8565b811461259b57600080fd5b50565b6125a7816124f2565b81146125b257600080fd5b5056fea2646970667358221220ee6d40c2f890d637d0c15e79de3793ccd93a51ef3cc45d2b0f193e692f438bf364736f6c634300060c0033",
  "immutableReferences": {},
  "source": "// SPDX-License-Identifier: UNLICENSED\r\npragma solidity >=0.4.22 <0.8.0;\r\n\r\npragma experimental ABIEncoderV2;\r\n\r\nimport \"@chainlink/contracts/contracts/v0.6/VRFConsumerBase.sol\";\r\n\r\nimport { IRandomnessContract } from \"./interfaces/IRandomnessContract.sol\";\r\nimport { IGovernanceContract } from \"./interfaces/IGovernanceContract.sol\";\r\n\r\ncontract LotteryContract {\r\n    IGovernanceContract public governance;\r\n\r\n    enum GameStateEnum {\r\n        OPEN,\r\n        CLOSED,\r\n        PROCESSING_WINNERS,\r\n        PAYING_WINNERS,\r\n        PAYING_WINNERS_COMPLETED\r\n    }\r\n\r\n    GameStateEnum public gameState = GameStateEnum.CLOSED;\r\n    \r\n    uint256 public bettingPrice = 10000;\r\n    \r\n    address payable admin;\r\n    \r\n    uint public currentGameId = 1;\r\n    uint totalBets = 0;\r\n    address payable[] winners;\r\n    \r\n    struct Game {\r\n        uint id;\r\n        uint randomNumber;\r\n        uint totalBetAmount;\r\n        BettingNumbers drawnNumbers;\r\n    }\r\n    \r\n    mapping (uint => Game) public games;\r\n    \r\n    struct Bet {\r\n        uint id;\r\n        address payable player;\r\n        uint bettingAmount;\r\n        uint gameId;\r\n        BettingNumbers bettingNumbers;\r\n    }\r\n    \r\n    struct BettingNumbers {\r\n        uint8 n1;\r\n        uint8 n2;\r\n        uint8 n3;\r\n        uint8 n4;\r\n    }\r\n    \r\n    Bet[] public bets;\r\n    \r\n    /**\r\n     * Constructor inherits VRFConsumerBase\r\n     * \r\n     * Network: Kovan\r\n     * Chainlink VRF Coordinator address: 0xdD3782915140c8f3b190B5D67eAc6dc5760C46E9\r\n     * LINK token address:                0xa36085F69e2889c224210F603D836748e7dC0088\r\n     * Key Hash: 0x6c3699283bda56ad74f6b855546325b68d482e983852a7a82979cc4807b641f4\r\n     */\r\n    constructor(address _governance) public {\r\n        admin = msg.sender;\r\n        governance = IGovernanceContract(_governance);\r\n    }\r\n    \r\n    modifier activeGameRequired() {\r\n        require(gameState == GameStateEnum.OPEN, \"There are no active games accepting bets\");\r\n        require(games[currentGameId].id == currentGameId, \"cannot find game\");\r\n        _;\r\n    }\r\n\r\n    modifier noActiveGameRequired() {\r\n        require(gameState == GameStateEnum.CLOSED, \"There is an active game running\");\r\n        _;\r\n    }\r\n    \r\n    modifier adminRequired() {\r\n        require(msg.sender == admin, \"Only admin has access to this resource\");\r\n        _;\r\n    }\r\n  \r\n    modifier validBettingNumbersRequired(uint8 n1, uint8 n2, uint8 n3, uint8 n4) {\r\n        require(n1 <= 9, \"First digit must be less than 10\");\r\n        require(n2 <= 9, \"Second digit must be less than 10\");\r\n        require(n3 <= 9, \"Third digit must be less than 10\");\r\n        require(n4 <= 9, \"Fourth digit must be less than 10\");\r\n        _;\r\n    }\r\n\r\n    modifier validBettingPrice() {\r\n        require(msg.value == bettingPrice, \"Invalid betting price\");\r\n        _;\r\n    }\r\n\r\n    function getBalance() public view adminRequired returns (uint) {\r\n        return address(this).balance;\r\n    }\r\n\r\n    function withdrawBalance(address payable _to) payable public adminRequired noActiveGameRequired {\r\n        require(_to != address(0) || _to != address(0x0), \"The destination address is invalid\");\r\n\r\n        _to.transfer(address(this).balance);\r\n    }\r\n    \r\n    function startGame() public adminRequired {\r\n        // ensure there are no active games\r\n        require(gameState == GameStateEnum.CLOSED, \"There is an active game already\");\r\n        \r\n        // ensure there are no outstanding bets\r\n        require(bets.length == 0, \"There are outstanding bets\");\r\n        \r\n        // activate game\r\n        gameState = GameStateEnum.OPEN;\r\n        \r\n        // currentGameId + 1\r\n        currentGameId++;\r\n        \r\n        // add new game to games mapping\r\n        games[currentGameId] = Game(currentGameId, 0, 0, BettingNumbers(0, 0, 0, 0));\r\n    }\r\n    \r\n    function endGame() private {\r\n        \r\n        // reset bets array\r\n        delete bets;\r\n\r\n        // reset winners array\r\n        winners = new address payable[](0);\r\n        \r\n        // deactivate game\r\n        gameState = GameStateEnum.CLOSED;\r\n    }\r\n    \r\n    function placeBet(uint8 n1, uint8 n2, uint8 n3, uint8 n4) payable public activeGameRequired validBettingPrice validBettingNumbersRequired(n1, n2, n3, n4) {\r\n        totalBets++;\r\n        \r\n        games[currentGameId].totalBetAmount += msg.value;\r\n        \r\n        BettingNumbers memory bettingNumbers = BettingNumbers(n1, n2, n3, n4);\r\n        \r\n        Bet memory bet = Bet(totalBets, msg.sender, msg.value, currentGameId, bettingNumbers);\r\n        \r\n        bets.push(bet);\r\n    }\r\n    \r\n    function drawNumbers(uint256 seed) public adminRequired activeGameRequired returns (bytes32 requestId) {\r\n        gameState = GameStateEnum.PROCESSING_WINNERS;\r\n        return getRandomNumber(seed);\r\n    }\r\n\r\n    function getRandomNumber(uint256 userProvidedSeed) private returns (bytes32 requestId) {\r\n        require(gameState == GameStateEnum.PROCESSING_WINNERS, \"Invalid game state to fetch random number\");\r\n\r\n        return IRandomnessContract(governance.randomness()).randomNumber(userProvidedSeed);\r\n    }\r\n\r\n    function fulfillRandomNumber(uint256 _randomness) external {\r\n        require(gameState == GameStateEnum.PROCESSING_WINNERS, \"Invalid game state to process random number\");\r\n        games[currentGameId].randomNumber = _randomness;\r\n\r\n        processDrawnNumbers();\r\n    }\r\n    \r\n    function processDrawnNumbers() private {\r\n        require(gameState == GameStateEnum.PROCESSING_WINNERS, \"Invalid game state to process drawn numbers\");\r\n\r\n        uint256 randomNumber = games[currentGameId].randomNumber;\r\n\r\n        uint8 n1 = uint8(randomNumber % 10000 / 1000);\r\n        uint8 n2 = uint8(randomNumber % 1000 / 100);\r\n        uint8 n3 = uint8(randomNumber % 100 / 10);\r\n        uint8 n4 = uint8(randomNumber % 10);\r\n\r\n        games[currentGameId].drawnNumbers = BettingNumbers(n1, n2, n3, n4);\r\n\r\n        gameState = GameStateEnum.PAYING_WINNERS;\r\n        payoutPrizes();\r\n    }\r\n\r\n    function payoutPrizes() private {\r\n        require(gameState == GameStateEnum.PAYING_WINNERS, \"Invalid game state to payout prizes\");\r\n\r\n        findWinners();\r\n\r\n        payoutWinners();\r\n\r\n        gameState = GameStateEnum.PAYING_WINNERS_COMPLETED;\r\n\r\n        endGame();\r\n    }\r\n\r\n    function findWinners() private {\r\n        for (uint i; i < bets.length; i++) {\r\n            bool winner = bets[i].bettingNumbers.n1 == games[currentGameId].drawnNumbers.n1\r\n                && bets[i].bettingNumbers.n2 == games[currentGameId].drawnNumbers.n2\r\n                && bets[i].bettingNumbers.n3 == games[currentGameId].drawnNumbers.n3\r\n                && bets[i].bettingNumbers.n4 == games[currentGameId].drawnNumbers.n4;\r\n\r\n            if (winner) {\r\n                winners.push(bets[i].player);\r\n            }\r\n        }\r\n    }\r\n\r\n    function payoutWinners() private {\r\n        // If there are winners...\r\n        if (winners.length > 0) { \r\n            // ...take 10% profit\r\n            uint256 profit = games[currentGameId].totalBetAmount * 10 / 100;\r\n\r\n            uint256 payablePrize = games[currentGameId].totalBetAmount - profit;\r\n\r\n            uint256 individualPayablePrize = payablePrize / winners.length;\r\n\r\n            for (uint i; i < winners.length; i++) {\r\n                winners[i].transfer(individualPayablePrize);\r\n            }\r\n        }\r\n    }\r\n}\r\n",
  "sourcePath": "C:/Workspace/dev/lottery-dApp/src/contracts/LotteryContract.sol",
  "compiler": {
    "name": "solc",
    "version": "0.6.12+commit.27d51765.Emscripten.clang"
  },
  "schemaVersion": "3.3.3",
  "updatedAt": "2021-03-29T10:13:05.873Z",
  "networkType": "ethereum",
  "devdoc": {
    "kind": "dev",
    "methods": {},
    "version": 1
  },
  "userdoc": {
    "kind": "user",
    "methods": {
      "constructor": "Constructor inherits VRFConsumerBase  Network: Kovan Chainlink VRF Coordinator address: 0xdD3782915140c8f3b190B5D67eAc6dc5760C46E9 LINK token address:                0xa36085F69e2889c224210F603D836748e7dC0088 Key Hash: 0x6c3699283bda56ad74f6b855546325b68d482e983852a7a82979cc4807b641f4"
    },
    "version": 1
  }
}