{
  "contractName": "MockRandomnessContract",
  "abi": [
    {
      "inputs": [
        {
          "internalType": "address",
          "name": "_linkTokenAddress",
          "type": "address"
        },
        {
          "internalType": "address",
          "name": "_governance",
          "type": "address"
        }
      ],
      "stateMutability": "nonpayable",
      "type": "constructor"
    },
    {
      "inputs": [],
      "name": "generatedNumber",
      "outputs": [
        {
          "internalType": "uint256",
          "name": "",
          "type": "uint256"
        }
      ],
      "stateMutability": "view",
      "type": "function",
      "constant": true
    },
    {
      "inputs": [],
      "name": "governance",
      "outputs": [
        {
          "internalType": "contract IGovernanceContract",
          "name": "",
          "type": "address"
        }
      ],
      "stateMutability": "view",
      "type": "function",
      "constant": true
    },
    {
      "inputs": [
        {
          "internalType": "bytes32",
          "name": "requestId",
          "type": "bytes32"
        },
        {
          "internalType": "uint256",
          "name": "randomness",
          "type": "uint256"
        }
      ],
      "name": "rawFulfillRandomness",
      "outputs": [],
      "stateMutability": "nonpayable",
      "type": "function"
    },
    {
      "inputs": [],
      "name": "reqId",
      "outputs": [
        {
          "internalType": "bytes32",
          "name": "",
          "type": "bytes32"
        }
      ],
      "stateMutability": "view",
      "type": "function",
      "constant": true
    },
    {
      "inputs": [
        {
          "internalType": "uint256",
          "name": "userProvidedSeed",
          "type": "uint256"
        }
      ],
      "name": "randomNumber",
      "outputs": [
        {
          "internalType": "bytes32",
          "name": "requestId",
          "type": "bytes32"
        }
      ],
      "stateMutability": "nonpayable",
      "type": "function"
    },
    {
      "inputs": [
        {
          "internalType": "bytes32",
          "name": "_requestId",
          "type": "bytes32"
        },
        {
          "internalType": "uint256",
          "name": "_randomness",
          "type": "uint256"
        }
      ],
      "name": "fulfillRandomNumber",
      "outputs": [],
      "stateMutability": "nonpayable",
      "type": "function"
    },
    {
      "inputs": [],
      "name": "getLINKBalance",
      "outputs": [
        {
          "internalType": "uint256",
          "name": "",
          "type": "uint256"
        }
      ],
      "stateMutability": "view",
      "type": "function",
      "constant": true
    }
  ],
  "bytecode": "0x60c060405234801561001057600080fd5b506040516108453803806108458339818101604052604081101561003357600080fd5b81019080805190602001909291908051906020019092919050505073dd3782915140c8f3b190b5d67eac6dc5760c46e9828173ffffffffffffffffffffffffffffffffffffffff1660a08173ffffffffffffffffffffffffffffffffffffffff1660601b815250508073ffffffffffffffffffffffffffffffffffffffff1660808173ffffffffffffffffffffffffffffffffffffffff1660601b8152505050507f6c3699283bda56ad74f6b855546325b68d482e983852a7a82979cc4807b641f460001b60048190555067016345785d8a000060058190555033600160006101000a81548173ffffffffffffffffffffffffffffffffffffffff021916908373ffffffffffffffffffffffffffffffffffffffff16021790555080600660006101000a81548173ffffffffffffffffffffffffffffffffffffffff021916908373ffffffffffffffffffffffffffffffffffffffff160217905550505060805160601c60a05160601c6106866101bf6000398061030f5250806103e052806104b252506106866000f3fe608060405234801561001057600080fd5b506004361061007d5760003560e01c806394985ddd1161005b57806394985ddd1461010c578063ac428e7a14610144578063e1b27b8514610162578063f970dd02146101805761007d565b806307dfe505146100825780635aa6e675146100ba5780638997ce4e146100ee575b600080fd5b6100b86004803603604081101561009857600080fd5b8101908080359060200190929190803590602001909291905050506101c2565b005b6100c26102e1565b604051808273ffffffffffffffffffffffffffffffffffffffff16815260200191505060405180910390f35b6100f6610307565b6040518082815260200191505060405180910390f35b6101426004803603604081101561012257600080fd5b81019080803590602001909291908035906020019092919050505061030d565b005b61014c6103dc565b6040518082815260200191505060405180910390f35b61016a6104a5565b6040518082815260200191505060405180910390f35b6101ac6004803603602081101561019657600080fd5b81019080803590602001909291905050506104ab565b6040518082815260200191505060405180910390f35b8160028190555080600381905550600660009054906101000a900473ffffffffffffffffffffffffffffffffffffffff1673ffffffffffffffffffffffffffffffffffffffff1663ba13a5726040518163ffffffff1660e01b815260040160206040518083038186803b15801561023857600080fd5b505afa15801561024c573d6000803e3d6000fd5b505050506040513d602081101561026257600080fd5b810190808051906020019092919050505073ffffffffffffffffffffffffffffffffffffffff1663f78da08a826040518263ffffffff1660e01b815260040180828152602001915050600060405180830381600087803b1580156102c557600080fd5b505af11580156102d9573d6000803e3d6000fd5b505050505050565b600660009054906101000a900473ffffffffffffffffffffffffffffffffffffffff1681565b60025481565b7f000000000000000000000000000000000000000000000000000000000000000073ffffffffffffffffffffffffffffffffffffffff163373ffffffffffffffffffffffffffffffffffffffff16146103ce576040517f08c379a000000000000000000000000000000000000000000000000000000000815260040180806020018281038252601f8152602001807f4f6e6c7920565246436f6f7264696e61746f722063616e2066756c66696c6c0081525060200191505060405180910390fd5b6103d88282610621565b5050565b60007f000000000000000000000000000000000000000000000000000000000000000073ffffffffffffffffffffffffffffffffffffffff166370a08231306040518263ffffffff1660e01b8152600401808273ffffffffffffffffffffffffffffffffffffffff16815260200191505060206040518083038186803b15801561046557600080fd5b505afa158015610479573d6000803e3d6000fd5b505050506040513d602081101561048f57600080fd5b8101908080519060200190929190505050905090565b60035481565b60006005547f000000000000000000000000000000000000000000000000000000000000000073ffffffffffffffffffffffffffffffffffffffff166370a08231306040518263ffffffff1660e01b8152600401808273ffffffffffffffffffffffffffffffffffffffff16815260200191505060206040518083038186803b15801561053757600080fd5b505afa15801561054b573d6000803e3d6000fd5b505050506040513d602081101561056157600080fd5b8101908080519060200190929190505050116105c8576040517f08c379a000000000000000000000000000000000000000000000000000000000815260040180806020018281038252602b815260200180610626602b913960400191505060405180910390fd5b7f6d792072616e646f6d207265717565737420496400000000000000000000000090507f6d792072616e646f6d207265717565737420496400000000000000000000000060028190555061061c81836101c2565b919050565b505056fe4e6f7420656e6f756768204c494e4b202d2066696c6c20636f6e7472616374207769746820666175636574a2646970667358221220f4aaf180613c2f7c10ab2f08576c6adec156a5d214e8383e5935a0dabb77e00464736f6c634300060c0033",
  "immutableReferences": {
    "1153": [
      {
        "length": 32,
        "start": 992
      },
      {
        "length": 32,
        "start": 1202
      }
    ],
    "1155": [
      {
        "length": 32,
        "start": 783
      }
    ]
  },
  "source": "// SPDX-License-Identifier: UNLICENSED\r\npragma solidity >=0.4.22 <0.8.0;\r\n\r\nimport \"@chainlink/contracts/contracts/v0.6/VRFConsumerBase.sol\";\r\n\r\nimport { ILotteryContract } from \"../interfaces/ILotteryContract.sol\";\r\nimport { IGovernanceContract } from \"../interfaces/IGovernanceContract.sol\";\r\n\r\ncontract MockRandomnessContract is VRFConsumerBase {\r\n    address payable admin;\r\n    \r\n    bytes32 public reqId;\r\n    uint256 public generatedNumber;\r\n    \r\n    bytes32 internal keyHash;\r\n    uint256 internal fee;\r\n    \r\n    IGovernanceContract public governance;\r\n\r\n    /**\r\n     * Constructor inherits VRFConsumerBase\r\n     * \r\n     * Network: Kovan\r\n     * Chainlink VRF Coordinator address: 0xdD3782915140c8f3b190B5D67eAc6dc5760C46E9\r\n     * LINK token address:                0xa36085F69e2889c224210F603D836748e7dC0088\r\n     * Key Hash: 0x6c3699283bda56ad74f6b855546325b68d482e983852a7a82979cc4807b641f4\r\n     */\r\n    constructor(address _linkTokenAddress, address _governance)\r\n        VRFConsumerBase(\r\n            0xdD3782915140c8f3b190B5D67eAc6dc5760C46E9, // VRF Coordinator\r\n            // 0xa36085F69e2889c224210F603D836748e7dC0088  // LINK Token\r\n            _linkTokenAddress\r\n        ) public\r\n    {\r\n        keyHash = 0x6c3699283bda56ad74f6b855546325b68d482e983852a7a82979cc4807b641f4;\r\n        fee = 0.1 * 10 ** 18; // 0.1 LINK\r\n        admin = msg.sender;\r\n        governance = IGovernanceContract(_governance);\r\n    }\r\n\r\n    function randomNumber(uint256 userProvidedSeed) public returns (bytes32 requestId) {\r\n        require(LINK.balanceOf(address(this)) > fee, \"Not enough LINK - fill contract with faucet\");\r\n\r\n        // Dont call requestRandomness(keyHash, fee, userProvidedSeed).\r\n        // Instead, mock the random number;\r\n        // return requestRandomness(keyHash, fee, userProvidedSeed);\r\n\r\n        requestId = bytes32(\"my random request Id\");\r\n        reqId = bytes32(\"my random request Id\");\r\n\r\n        fulfillRandomNumber(requestId, userProvidedSeed);\r\n        return requestId;\r\n    }\r\n\r\n    function fulfillRandomNumber(bytes32 _requestId, uint256 _randomness) public {\r\n        reqId = _requestId;\r\n        generatedNumber = _randomness;\r\n\r\n        // call lottery method and pass the random number\r\n        ILotteryContract(governance.lottery()).fulfillRandomNumber(_randomness);\r\n    }\r\n    \r\n    function fulfillRandomness(bytes32 requestId, uint256 randomness) internal override {\r\n        // MOCKED OUT\r\n\r\n        //reqId = requestId;\r\n        //generatedNumber = randomness;\r\n\r\n        // call lottery method and pass the random number\r\n        //ILotteryContract(governance.lottery()).fulfillRandomNumber(generatedNumber);\r\n    }\r\n    \r\n    function getLINKBalance() public view returns (uint) {\r\n        return LINK.balanceOf(address(this));\r\n    }\r\n}\r\n",
  "sourcePath": "C:/Workspace/dev/lottery-dApp/src/contracts/mocks/MockRandomnessContract.sol",
  "compiler": {
    "name": "solc",
    "version": "0.6.12+commit.27d51765.Emscripten.clang"
  },
  "schemaVersion": "3.3.3",
  "updatedAt": "2021-03-19T00:08:45.006Z",
  "networkType": "ethereum",
  "devdoc": {
    "kind": "dev",
    "methods": {},
    "version": 1
  },
  "userdoc": {
    "kind": "user",
    "methods": {
      "constructor": "Constructor inherits VRFConsumerBase  Network: Kovan Chainlink VRF Coordinator address: 0xdD3782915140c8f3b190B5D67eAc6dc5760C46E9 LINK token address:                0xa36085F69e2889c224210F603D836748e7dC0088 Key Hash: 0x6c3699283bda56ad74f6b855546325b68d482e983852a7a82979cc4807b641f4"
    },
    "version": 1
  }
}