{
  "contractName": "RandomnessContract",
  "abi": [
    {
      "inputs": [
        {
          "internalType": "address",
          "name": "_linkTokenAddress",
          "type": "address"
        },
        {
          "internalType": "address",
          "name": "_governance",
          "type": "address"
        }
      ],
      "stateMutability": "nonpayable",
      "type": "constructor"
    },
    {
      "inputs": [],
      "name": "generatedNumber",
      "outputs": [
        {
          "internalType": "uint256",
          "name": "",
          "type": "uint256"
        }
      ],
      "stateMutability": "view",
      "type": "function"
    },
    {
      "inputs": [],
      "name": "governance",
      "outputs": [
        {
          "internalType": "contract IGovernanceContract",
          "name": "",
          "type": "address"
        }
      ],
      "stateMutability": "view",
      "type": "function"
    },
    {
      "inputs": [
        {
          "internalType": "bytes32",
          "name": "requestId",
          "type": "bytes32"
        },
        {
          "internalType": "uint256",
          "name": "randomness",
          "type": "uint256"
        }
      ],
      "name": "rawFulfillRandomness",
      "outputs": [],
      "stateMutability": "nonpayable",
      "type": "function"
    },
    {
      "inputs": [],
      "name": "reqId",
      "outputs": [
        {
          "internalType": "bytes32",
          "name": "",
          "type": "bytes32"
        }
      ],
      "stateMutability": "view",
      "type": "function"
    },
    {
      "inputs": [
        {
          "internalType": "uint256",
          "name": "userProvidedSeed",
          "type": "uint256"
        }
      ],
      "name": "randomNumber",
      "outputs": [
        {
          "internalType": "bytes32",
          "name": "requestId",
          "type": "bytes32"
        }
      ],
      "stateMutability": "nonpayable",
      "type": "function"
    },
    {
      "inputs": [],
      "name": "getLINKBalance",
      "outputs": [
        {
          "internalType": "uint256",
          "name": "",
          "type": "uint256"
        }
      ],
      "stateMutability": "view",
      "type": "function"
    }
  ],
  "bytecode": "0x60c060405234801561001057600080fd5b50604051610ad1380380610ad18339818101604052604081101561003357600080fd5b81019080805190602001909291908051906020019092919050505073dd3782915140c8f3b190b5d67eac6dc5760c46e9828173ffffffffffffffffffffffffffffffffffffffff1660a08173ffffffffffffffffffffffffffffffffffffffff1660601b815250508073ffffffffffffffffffffffffffffffffffffffff1660808173ffffffffffffffffffffffffffffffffffffffff1660601b8152505050507f6c3699283bda56ad74f6b855546325b68d482e983852a7a82979cc4807b641f460001b60048190555067016345785d8a000060058190555033600160006101000a81548173ffffffffffffffffffffffffffffffffffffffff021916908373ffffffffffffffffffffffffffffffffffffffff16021790555080600660006101000a81548173ffffffffffffffffffffffffffffffffffffffff021916908373ffffffffffffffffffffffffffffffffffffffff160217905550505060805160601c60a05160601c6109086101c96000398061019d52806105cd52508061026e5280610340528061059152506109086000f3fe608060405234801561001057600080fd5b50600436106100625760003560e01c80635aa6e675146100675780638997ce4e1461009b57806394985ddd146100b9578063ac428e7a146100f1578063e1b27b851461010f578063f970dd021461012d575b600080fd5b61006f61016f565b604051808273ffffffffffffffffffffffffffffffffffffffff16815260200191505060405180910390f35b6100a3610195565b6040518082815260200191505060405180910390f35b6100ef600480360360408110156100cf57600080fd5b81019080803590602001909291908035906020019092919050505061019b565b005b6100f961026a565b6040518082815260200191505060405180910390f35b610117610333565b6040518082815260200191505060405180910390f35b6101596004803603602081101561014357600080fd5b8101908080359060200190929190505050610339565b6040518082815260200191505060405180910390f35b600660009054906101000a900473ffffffffffffffffffffffffffffffffffffffff1681565b60025481565b7f000000000000000000000000000000000000000000000000000000000000000073ffffffffffffffffffffffffffffffffffffffff163373ffffffffffffffffffffffffffffffffffffffff161461025c576040517f08c379a000000000000000000000000000000000000000000000000000000000815260040180806020018281038252601f8152602001807f4f6e6c7920565246436f6f7264696e61746f722063616e2066756c66696c6c0081525060200191505060405180910390fd5b610266828261046c565b5050565b60007f000000000000000000000000000000000000000000000000000000000000000073ffffffffffffffffffffffffffffffffffffffff166370a08231306040518263ffffffff1660e01b8152600401808273ffffffffffffffffffffffffffffffffffffffff16815260200191505060206040518083038186803b1580156102f357600080fd5b505afa158015610307573d6000803e3d6000fd5b505050506040513d602081101561031d57600080fd5b8101908080519060200190929190505050905090565b60035481565b60006005547f000000000000000000000000000000000000000000000000000000000000000073ffffffffffffffffffffffffffffffffffffffff166370a08231306040518263ffffffff1660e01b8152600401808273ffffffffffffffffffffffffffffffffffffffff16815260200191505060206040518083038186803b1580156103c557600080fd5b505afa1580156103d9573d6000803e3d6000fd5b505050506040513d60208110156103ef57600080fd5b810190808051906020019092919050505011610456576040517f08c379a000000000000000000000000000000000000000000000000000000000815260040180806020018281038252602b8152602001806108a8602b913960400191505060405180910390fd5b6104656004546005548461058d565b9050919050565b8160028190555080600381905550600660009054906101000a900473ffffffffffffffffffffffffffffffffffffffff1673ffffffffffffffffffffffffffffffffffffffff1663ba13a5726040518163ffffffff1660e01b815260040160206040518083038186803b1580156104e257600080fd5b505afa1580156104f6573d6000803e3d6000fd5b505050506040513d602081101561050c57600080fd5b810190808051906020019092919050505073ffffffffffffffffffffffffffffffffffffffff1663f78da08a6003546040518263ffffffff1660e01b815260040180828152602001915050600060405180830381600087803b15801561057157600080fd5b505af1158015610585573d6000803e3d6000fd5b505050505050565b60007f000000000000000000000000000000000000000000000000000000000000000073ffffffffffffffffffffffffffffffffffffffff16634000aea07f000000000000000000000000000000000000000000000000000000000000000085878660405160200180838152602001828152602001925050506040516020818303038152906040526040518463ffffffff1660e01b8152600401808473ffffffffffffffffffffffffffffffffffffffff16815260200183815260200180602001828103825283818151815260200191508051906020019080838360005b8381101561068657808201518184015260208101905061066b565b50505050905090810190601f1680156106b35780820380516001836020036101000a031916815260200191505b50945050505050602060405180830381600087803b1580156106d457600080fd5b505af11580156106e8573d6000803e3d6000fd5b505050506040513d60208110156106fe57600080fd5b81019080805190602001909291905050505060006107308584306000808a815260200190815260200160002054610782565b90506107586001600080888152602001908152602001600020546107e690919063ffffffff16565b60008087815260200190815260200160002081905550610778858261086e565b9150509392505050565b600084848484604051602001808581526020018481526020018373ffffffffffffffffffffffffffffffffffffffff1681526020018281526020019450505050506040516020818303038152906040528051906020012060001c9050949350505050565b600080828401905083811015610864576040517f08c379a000000000000000000000000000000000000000000000000000000000815260040180806020018281038252601b8152602001807f536166654d6174683a206164646974696f6e206f766572666c6f77000000000081525060200191505060405180910390fd5b8091505092915050565b6000828260405160200180838152602001828152602001925050506040516020818303038152906040528051906020012090509291505056fe4e6f7420656e6f756768204c494e4b202d2066696c6c20636f6e7472616374207769746820666175636574a26469706673582212202e6b6799f3b8e424b55725b35ec5ca9f2eb271ba1551b237bafb28fc71e7f34f64736f6c634300060c0033",
  "immutableReferences": {
    "1153": [
      {
        "length": 32,
        "start": 622
      },
      {
        "length": 32,
        "start": 832
      },
      {
        "length": 32,
        "start": 1425
      }
    ],
    "1155": [
      {
        "length": 32,
        "start": 413
      },
      {
        "length": 32,
        "start": 1485
      }
    ]
  },
  "source": "// SPDX-License-Identifier: UNLICENSED\r\npragma solidity >=0.4.22 <0.8.0;\r\n\r\nimport \"@chainlink/contracts/contracts/v0.6/VRFConsumerBase.sol\";\r\n\r\nimport { ILotteryContract } from \"./interfaces/ILotteryContract.sol\";\r\nimport { IGovernanceContract } from \"./interfaces/IGovernanceContract.sol\";\r\n\r\ncontract RandomnessContract is VRFConsumerBase {\r\n    address payable admin;\r\n    \r\n    bytes32 public reqId;\r\n    uint256 public generatedNumber;\r\n    \r\n    bytes32 internal keyHash;\r\n    uint256 internal fee;\r\n    \r\n    IGovernanceContract public governance;\r\n\r\n    \r\n    /**\r\n     * Constructor inherits VRFConsumerBase\r\n     * \r\n     * Network: Kovan\r\n     * Chainlink VRF Coordinator address: 0xdD3782915140c8f3b190B5D67eAc6dc5760C46E9\r\n     * LINK token address:                0xa36085F69e2889c224210F603D836748e7dC0088\r\n     * Key Hash: 0x6c3699283bda56ad74f6b855546325b68d482e983852a7a82979cc4807b641f4\r\n     */\r\n    constructor(address _linkTokenAddress, address _governance)\r\n        VRFConsumerBase(\r\n            0xdD3782915140c8f3b190B5D67eAc6dc5760C46E9, // VRF Coordinator\r\n            // 0xa36085F69e2889c224210F603D836748e7dC0088  // LINK Token\r\n            _linkTokenAddress\r\n        ) public\r\n    {\r\n        keyHash = 0x6c3699283bda56ad74f6b855546325b68d482e983852a7a82979cc4807b641f4;\r\n        fee = 0.1 * 10 ** 18; // 0.1 LINK\r\n        admin = msg.sender;\r\n        governance = IGovernanceContract(_governance);\r\n    }\r\n\r\n    function randomNumber(uint256 userProvidedSeed) public returns (bytes32 requestId) {\r\n        require(LINK.balanceOf(address(this)) > fee, \"Not enough LINK - fill contract with faucet\");\r\n        return requestRandomness(keyHash, fee, userProvidedSeed);\r\n    }\r\n    \r\n    function fulfillRandomness(bytes32 requestId, uint256 randomness) internal override {\r\n        reqId = requestId;\r\n        generatedNumber = randomness;\r\n\r\n        // call lottery method and pass the random number\r\n        ILotteryContract(governance.lottery()).fulfillRandomNumber(generatedNumber);\r\n    }\r\n    \r\n    function getLINKBalance() public view returns (uint) {\r\n        return LINK.balanceOf(address(this));\r\n    }\r\n}\r\n",
  "sourcePath": "C:/Workspace/dev/lottery-dApp/src/contracts/RandomnessContract.sol",
  "compiler": {
    "name": "solc",
    "version": "0.6.12+commit.27d51765.Emscripten.clang"
  },
  "schemaVersion": "3.3.3",
  "updatedAt": "2021-03-19T00:08:45.000Z",
  "networkType": "ethereum",
  "devdoc": {
    "kind": "dev",
    "methods": {},
    "version": 1
  },
  "userdoc": {
    "kind": "user",
    "methods": {
      "constructor": "Constructor inherits VRFConsumerBase  Network: Kovan Chainlink VRF Coordinator address: 0xdD3782915140c8f3b190B5D67eAc6dc5760C46E9 LINK token address:                0xa36085F69e2889c224210F603D836748e7dC0088 Key Hash: 0x6c3699283bda56ad74f6b855546325b68d482e983852a7a82979cc4807b641f4"
    },
    "version": 1
  }
}